:1000000031ED01F037ED01F0CEB604EF00F0000E57
:10001000C26F010EC26FC06B010EC06FF4ECFFF037
:10002000CEB61CEF00F0F4ECFFF0F4ECFFF0CEB62F
:1000300013EF00F01CEF00F0020EC06FF4ECFFF0C5
:10004000CEB62CEF00F0F4ECFFF0F4ECFFF0CEB6FF
:1000500023EF00F02CEF00F0040EC06FF4ECFFF083
:10006000CEB63CEF00F0F4ECFFF0F4ECFFF0CEB6CF
:1000700033EF00F03CEF00F0080EC06FF4ECFFF03F
:10008000CEB64CEF00F0F4ECFFF0F4ECFFF0CEB69F
:1000900043EF00F04CEF00F0100EC06FF4ECFFF0F7
:1000A000CEB65CEF00F0F4ECFFF0F4ECFFF0CEB66F
:1000B00053EF00F05CEF00F0200EC06FF4ECFFF0A7
:1000C000CEB66CEF00F0F4ECFFF0F4ECFFF0CEB63F
:1000D00063EF00F06CEF00F0400EC06FF4ECFFF047
:1000E000CEB67CEF00F0F4ECFFF0F4ECFFF0CEB60F
:1000F00073EF00F07CEF00F0800EC06FF4ECFFF0C7
:10010000CEB68CEF00F0F4ECFFF0F4ECFFF0CEB6DE
:1001100083EF00F08CEF00F0000EC26F020EC26F92
:10012000F4ECFFF0C06B010EC06FF4ECFFF0F4ECE8
:10013000FFF0CEB6A5EF00F0F4ECFFF0F4ECFFF02A
:10014000CEB69CEF00F0A5EF00F0F4ECFFF0020E4D
:10015000C06FF4ECFFF0F4ECFFF0CEB6B9EF00F0B6
:10016000F4ECFFF0F4ECFFF0CEB6B0EF00F0B9EF36
:1001700000F0F4ECFFF0040EC06FF4ECFFF0F4ECD0
:10018000FFF0CEB6CDEF00F0F4ECFFF0F4ECFFF0B2
:10019000CEB6C4EF00F0CDEF00F0F4ECFFF0080EA7
:1001A000C06FF4ECFFF0F4ECFFF0CEB6E1EF00F03E
:1001B000F4ECFFF0F4ECFFF0CEB6D8EF00F0E1EF96
:1001C00000F0F4ECFFF0100EC06FF4ECFFF0F4EC74
:1001D000FFF0CEB6F5EF00F0F4ECFFF0F4ECFFF03A
:1001E000CEB6ECEF00F0F5EF00F0F4ECFFF0200EEF
:1001F000C06FF4ECFFF0F4ECFFF0CEB609EF01F0C5
:10020000F4ECFFF0F4ECFFF0CEB600EF01F009EFF4
:1002100001F0F4ECFFF0400EC06FF4ECFFF0F4ECF2
:10022000FFF0CEB61DEF01F0F4ECFFF0F4ECFFF0C0
:10023000CEB614EF01F01DEF01F0F4ECFFF0800EEC
:10024000C06FF4ECFFF0F4ECFFF0CEB607EF00F077
:10025000F4ECFFF0F4ECFFF0CEB628EF01F007EF7E
:1002600000F00001600EAD6F020EB16F12000401CC
:10027000D06BC06B106BC86B0401D269C26B206B72
:0E028000CA6B0401CE69006BC68701871200AD
:020000040001F9
:10FED40000EF00F0010E006E0000002E6EEFFFF048
:10FEE4001200060E006E0000002E76EFFFF01200E6
:10FEF4000B0E006E0000002E7CEFFFF012001F0EB0
:10FF0400006E002E83EFFFF01200300E006E000032
:10FF140000000000002E8BEFFFF01200510E006E67
:10FF24000000002E93EFFFF012007B0E006E000025
:10FF340000000000002E9BEFFFF01200010E016E86
:10FF4400F90E006E0000002EA4EFFFF0012EA2EFC8
:10FF5400FFF01200050E016EF90E006E0000002E77
:10FF6400B0EFFFF0012EAEEFFFF012000A0E016EAB
:10FF7400F90E006E0000002EBCEFFFF0012EBAEF68
:10FF8400FFF01200190E016EF90E006E0000002E33
:10FF9400C8EFFFF0012EC6EFFFF01200320E016E23
:10FFA400F90E006E0000002ED4EFFFF0012ED2EF08
:10FFB400FFF01200640E016EF90E006E0000002EB8
:10FFC400E0EFFFF0012EDEEFFFF01200C80E016E2D
:10FFD400F90E006E0000002EECEFFFF0012EEAEFA8
:10FFE400FFF01200FA0E016EF90E006E0000002EF2
:0CFFF400F8EFFFF0012EF6EFFFF0120016
:020000040030CA
:10000000EC0D27C79FFFFFFFFFFFFFFFFFFFFFFF75
:10001000FFFFFFFFFFFFFFFFFFFFFFFFFFFFFFFFF0
:03002000FFFFFFE0
:00000001FF
