:0400000017EF00F006
:10000800B4B05DEF00F0B8B0B890C06B05681000F0
:10001800000E036E056E050E066EAFA016EF00F01B
:100028002BEF00F0100063ED00F069ED00F081EDBA
:1000380000F08BED00F09FEC00F09FEC00F0C38621
:100048009FEC00F09FEC00F0C3961FEF00F0AF901C
:100058000A0E026E000E076E32EF00F00401000E69
:10006800FB6F000EFA6F074451EC00F005B216EF73
:1000780000F003B216EF00F0C06E046E9FEC00F0C3
:10008800022E4EEF00F049EF00F0062E2BEF00F0A5
:1000980016EF00F0072A32EF00F0F926810C420C27
:1000A800240C180C000C180C240C420C810C000CAD
:1000B8001200B4900450C06F03680BEF00F0000109
:1000C800600EAD6F020EB16F12000401D397C387A3
:1000D800286BCB97D395CB8529850401CF990899AF
:1000E800C78909890401CE97006BC6870187040177
:1000F800D069C06B106BC86B12000201030E3E6F13
:1001080002010C0E3F6F02012A0E406F1200D68AC0
:100118000301639168816C81D690AF909F80D692DD
:10012800B490A480D694B890A880D68ED68C1200AD
:1001380095EF00F01200FA0E016EF90E006E000045
:0E014800002EA3EF00F0012EA1EF00F0120038
:020000040030CA
:10000000EC0D27C79FFFFFFFFFFFFFFFFFFFFFFF75
:10001000FFFFFFFFFFFFFFFFFFFFFFFFFFFFFFFFF0
:03002000FFFFFFE0
:00000001FF
