:10000000F9ED00F0FFED00F0CEA69FEF00F0F4EC6C
:10001000FFF0F4ECFFF0030EC16FF4ECFFF0F4EC32
:10002000FFF0CEB616EF00F09FEF00F0F4ECFFF01B
:10003000F4ECFFF09F0EC16FF4ECFFF0F4ECFFF076
:10004000CEB625EF00F09FEF00F0F4ECFFF0F4ECFB
:10005000FFF0250EC16FF4ECFFF0F4ECFFF0F4ECD0
:10006000FFF0CEB636EF00F09FEF00F0F4ECFFF0BB
:10007000F4ECFFF00D0EC16FF4ECFFF0F4ECFFF0C8
:10008000CEB645EF00F09FEF00F0F4ECFFF0F4EC9B
:10009000FFF0990EC16FF4ECFFF0F4ECFFF0CEB678
:1000A00054EF00F09FEF00F0F4ECFFF0F4ECFFF001
:1000B000490EC16FF4ECFFF0F4ECFFF0CEB663EF45
:1000C00000F09FEF00F0F4ECFFF0F4ECFFF0410ED5
:1000D000C16FF4ECFFF0F4ECFFF0CEB672EF00F07D
:1000E0009FEF00F0F4ECFFF0F4ECFFF01F0EC16F97
:1000F000F4ECFFF0F4ECFFF0CEB681EF00F09FEFF0
:1001000000F0F4ECFFF0F4ECFFF0010EC16FF4EC42
:10011000FFF0F4ECFFF0CEB690EF00F09FEF00F0B0
:10012000F4ECFFF0F4ECFFF0190EC16FF4ECFFF00B
:10013000F4ECFFF0CEB607EF00F09FEF00F0F4EC28
:10014000FFF0F4ECFFF0110EC16FF4ECFFF0F4ECF3
:10015000FFF0CEA6AEEF00F007EF00F0F4ECFFF0FA
:10016000F4ECFFF0C10EC16FF4ECFFF0F4ECFFF023
:10017000CEA6BDEF00F007EF00F0F4ECFFF0F4ECDA
:10018000FFF0630EC16FF4ECFFF0F4ECFFF0CEA6CD
:10019000CCEF00F007EF00F0F4ECFFF0F4ECFFF030
:1001A000850EC16FF4ECFFF0F4ECFFF0CEA6DBEFB0
:1001B00000F007EF00F0F4ECFFF0F4ECFFF0610E5C
:1001C000C16FF4ECFFF0F4ECFFF0CEA6EAEF00F024
:1001D00007EF00F0F4ECFFF0F4ECFFF0710EC16FEC
:1001E000F4ECFFF0F4ECFFF0CEA69FEF00F007EF89
:1001F00000F00001600EAD6F020EB16F120004013D
:10020000D16BC169186BC96B0401CE6B006BC687DB
:040210000187120050
:020000040001F9
:10FED40000EF00F0010E006E0000002E6EEFFFF048
:10FEE4001200060E006E0000002E76EFFFF01200E6
:10FEF4000B0E006E0000002E7CEFFFF012001F0EB0
:10FF0400006E002E83EFFFF01200300E006E000032
:10FF140000000000002E8BEFFFF01200510E006E67
:10FF24000000002E93EFFFF012007B0E006E000025
:10FF340000000000002E9BEFFFF01200010E016E86
:10FF4400F90E006E0000002EA4EFFFF0012EA2EFC8
:10FF5400FFF01200050E016EF90E006E0000002E77
:10FF6400B0EFFFF0012EAEEFFFF012000A0E016EAB
:10FF7400F90E006E0000002EBCEFFFF0012EBAEF68
:10FF8400FFF01200190E016EF90E006E0000002E33
:10FF9400C8EFFFF0012EC6EFFFF01200320E016E23
:10FFA400F90E006E0000002ED4EFFFF0012ED2EF08
:10FFB400FFF01200640E016EF90E006E0000002EB8
:10FFC400E0EFFFF0012EDEEFFFF01200C80E016E2D
:10FFD400F90E006E0000002EECEFFFF0012EEAEFA8
:10FFE400FFF01200FA0E016EF90E006E0000002EF2
:0CFFF400F8EFFFF0012EF6EFFFF0120016
:020000040030CA
:10000000EC0D27C79FFFFFFFFFFFFFFFFFFFFFFF75
:10001000FFFFFFFFFFFFFFFFFFFFFFFFFFFFFFFFF0
:03002000FFFFFFE0
:00000001FF
